:020000040800F2
:10000000B0470020250300081B1B000861190008E9
:10001000191B0008A9060008551E00080000000072
:100020000000000000000000000000006502000861
:10003000AB06000800000000C10200083D1B0008DC
:100040003F0300083F0300083F0300083F03000888
:100050003F0300083F0300083F0300083F03000878
:100060003F0300083F0300083F0300083F03000868
:100070003F0300083F0300083F0300083F03000858
:100080003F0300083F0300083F0300083F03000848
:100090003F0300083F0300083F0300083F03000838
:1000A0003F0300083F0300083F0300083F03000828
:1000B000F91B00083F0300083F0300083F03000846
:1000C0003F0300083F0300083F0300083F03000808
:1000D0003F0300083F0300083F0300083F030008F8
:1000E0003F0300083F0300083F0300083F030008E8
:1000F0003F0300083F0300083F0300083F030008D8
:100100003F0300083F0300083F0300083F030008C7
:100110003F0300083F0300083F0300083F030008B7
:100120003F0300083F0300083F0300083F030008A7
:100130003F03000800000000000000003F0300082B
:100140003F0300083F0300083F0300083F03000887
:100150003F0300083F0300083F0300083F03000877
:100160003F0300083F0300083F0300083F03000867
:100170003F0300083F0300083F03000800000000A1
:10018000000000003F030008000000000000000025
:100190003F03000800000000000000003F030008CB
:1001A0000000000000000000000000003F03000805
:1001B0003F0300083F0300083F0300083F03000817
:1001C0003F03000800F002F800F03CF80AA090E8B5
:1001D000000C82448344AAF10107DA4501D100F002
:1001E00031F8AFF2090EBAE80F0013F0010F18BF93
:1001F000FB1A43F001031847C4280000E42800005C
:10020000103A24BF78C878C1FAD8520724BF30C842
:1002100030C144BF04680C60704700000023002414
:1002200000250026103A28BF78C1FBD8520728BF06
:1002300030C148BF0B6070471FB502F0DDFB1FBD2A
:1002400010B510BD00F061F91146FFF7F5FF01F0A0
:1002500013FE00F07FF903B4FFF7F2FF03BC00F0D8
:1002600087F900002C4B19680868B0E8F04F80F35C
:100270000988BFF36F8F4FF0000080F3118870473B
:100280000000000008480068006880F308884FF00C
:10029000000080F3148862B661B6BFF34F8FBFF3DE
:1002A0006F8F00DF00BF00BF08ED00E0DFF80C003B
:1002B000016841F470010160704700BF88ED00E003
:1002C000EFF30980BFF36F8F134B1A681EF0100F06
:1002D00008BF20ED108A20E9F04F106009B44FF0FC
:1002E000500080F31188BFF34F8FBFF36F8F02F080
:1002F000BBF94FF0000080F3118809BC1968086849
:10030000B0E8F04F1EF0100F08BFB0EC108A80F379
:100310000988BFF36F8F704720000020EFF305803E
:10032000704700000948804709480047FEE7FEE79C
:10033000FEE7FEE7FEE7FEE7FEE7FEE7FEE7FEE795
:1003400004480549054A064B70470000E91B0008B0
:10035000C5010008B0410020B0470020B043002094
:10036000B043002053EA020C00F069802DE9F04B05
:100370004FF00006002B1FBFB3FA83F503FA05F414
:1003800024FA05F65E4012BF1643B2FA82F502FA6D
:1003900005F4C5F120051EBF22FA05FC44EA0C0451
:1003A000203556EA044C4FEA144418BF641C4FF041
:1003B00000084FF00009904271EB030C39D300297B
:1003C00019BFB1FA81F701FA07F6B0FA80F700FA1F
:1003D00007F6C7F120071EBF20FA07FC46EA0C0605
:1003E0002037B6FBF4FCA7EB0507103F07F01F0B07
:1003F000CBF120060CFA0BFB2CFA06F644BFB346F1
:100400000026202FA4BF5E464FF0000B5BEA060CCF
:1004100008BF4FF0010B19EB0B09ABFB027C48EB5B
:100420000608C01B06FB02CC0BFB03CC71EB0C01D6
:10043000C1E70B46024641464846BDE8F08B13B57E
:100440004FF000004FF00001AFF30080BDE81C400A
:10045000704710B5203AC0F00B80B1E81850203A30
:10046000A0E81850B1E81850A0E81850BFF4F5AF54
:100470005FEA027C24BFB1E81850A0E8185044BFDE
:1004800018C918C0BDE810405FEA827C24BF51F84B
:10049000043B40F8043B08BF7047D20728BF31F83F
:1004A000023B48BF11F8012B28BF20F8023B48BF90
:1004B00000F8012B70474FF0000200B51346944638
:1004C0009646203922BFA0E80C50A0E80C50B1F1AC
:1004D0002001BFF4F7AF090728BFA0E80C5048BFC0
:1004E0000CC05DF804EB890028BF40F8042B08BF5E
:1004F000704748BF20F8022B11F0804F18BF00F85A
:10050000012B7047704770477047754600F02CF814
:10051000AE4605006946534620F00700854618B0F0
:1005200020B5FFF70DFFBDE820404FF000064FF06B
:1005300000074FF000084FF0000B21F00701AC4618
:10054000ACE8C009ACE8C009ACE8C009ACE8C00937
:100550008D46704710B50446AFF300802046BDE8D5
:100560001040FFF778BE0000004870474C41002063
:1005700001491820ABBEFEE72600020070470000CC
:10058000464910B54A6822F440324A604A684368D6
:100590001A434A6001684A6822F480724A6001681E
:1005A0004A68036942EA03224A6001684A6822F005
:1005B00040724A6001684A6883681A434A60016869
:1005C0008A6822F400628A6001688A68C3681A43F4
:1005D0008A60816A6FF07062D14201688A6822F095
:1005E00070628A6001688A680CD0836A1A438A60E4
:1005F00001688A6822F040528A6001688A68C36A8A
:100600001A4301E022F040528A6001688A6822F0B1
:1006100002028A6001688A68037E42EA43028A60B5
:1006200090F82010002901684A680FD042F4006257
:100630004A6001684A6822F460424A6001684A6878
:10064000174C436A04EB43331A4301E022F400627F
:100650004A600168CA6A22F47002CA620168CA6A02
:10066000838B104C04EB03531A43CA6201688A68F7
:1006700022F400728A6001688A6890F8303042EA99
:1006800043228A6001688A6822F480628A60016875
:100690008A68406942EA8020886010BD00230140DA
:1006A00000E0FFFF0000F0FFFEE7704772B6064D66
:1006B0004FF400544FF4FA762146284600F030FA01
:1006C000304600F00FF9F7E70008024078B5002443
:1006D000009490F83C20012A19D0012280F83C2097
:1006E0000A6807230568092A13D9EE680A3A02EB5B
:1006F000420293409E43EE600B788A680A3B03EB0C
:1007000043039A400368DD682A43DA6010E0022060
:1007100078BD2E6902EB420293409E432E610B7816
:100720008A6803EB43039A4003681D692A431A61F0
:100730004A681F23072A13D205686E6B521E02EB0C
:10074000820293409E436E630A8893B20A79521ED6
:1007500002EB820293400268556B2B43536327E000
:1007600005680D2A12D22E6BD21F02EB8202934033
:100770009E432E630B790A88DB1F92B203EB83033F
:100780009A4003681D6B2A431A6311E0EE6A0D3A22
:1007900002EB820293409E43EE620B790A880D3B86
:1007A00092B203EB83039A400368DD6A2A43DA625C
:1007B0001B4B0568194A9D420AD10D68122D07D1BD
:1007C000556825F400055560556845F48005556069
:1007D00005689D421DD1134D0B68AB4201D0112B12
:1007E00017D1536823F480035360536843F4000324
:1007F00053600968A9420CD10B490C4A0968B1FB46
:10080000F2F101EB8101490000E0491E009100294D
:10081000FBD180F83C40002078BD0000002301405F
:1008200000200140120000101C00002040420F0078
:1008300070B504004FF0000503D0206C002610B105
:1008400007E0012070BD204600F01CF8666484F8C3
:100850003C60206CC00610D4206C20F4885040F01E
:10086000020020642046FFF78BFE6664206C20F0B7
:10087000020040F00100206400E0012584F83C60A3
:10088000284670BD10B586B0044614216846FFF7AF
:1008900012FE1149206888421CD1104800210268CC
:1008A00042F480720260006800F4807005900B488A
:1008B0001438026842F001020260006800F0010092
:1008C0000590022000900320CDE90101694604480B
:1008D00000F038F806B010BD002001404438024056
:1008E0000000024010B500F029F94FF0E020016946
:1008F00021F002010161016941F0020101610F482B
:10090000416841F001014160416821F0010141600D
:10091000416841F002014160416821F002014160FB
:10092000416841F004014160416821F004014160E7
:100930000348012101600021016010BD002004E096
:10094000000427422DE9F84FDFF8ACA10022012472
:1009500003254FF00F090AF1040BAAF1040E00BFA2
:100960000B6804FA02F63340B3426ED10F7907F0F8
:100970000307012F01D0022F16D187684FEA4208E2
:1009800005FA08FC27EA0C07D1F80CC00CFA08FCA1
:100990004CEA070CC0F808C04768B7430E79C6F3A5
:1009A000001696403E4346600E79F643B6070AD0DD
:1009B000C6684FEA420C05FA0CF7BE438F6807FA87
:1009C0000CF73743C7600E7906F00306022E10D1EC
:1009D000D60800EB8608D8F8206057074FEAD76C96
:1009E00009FA0CF7BE430F6907FA0CF73743C8F84A
:1009F000207006684FEA420C05FA0CF7BE430F79E7
:100A000007F0030707FA0CF7374307604E6816F440
:100A1000403F6BD0394E376847F4804737603668BF
:100A200022F0030706F480460096354E07EB060CCD
:100A3000DCF8086897074FEA177809FA08F7BE4309
:100A4000304FB84202D100271FE04FE02E4FB8428E
:100A500001D1012719E02D4FB84201D1022714E03E
:100A60002B4FB84201D103270FE02A4FB84201D1E2
:100A700004270AE0284FB84201D1052705E0274F97
:100A8000B84201D1062700E0072707FA08F73743E5
:100A9000CCF80878DAF800605746D1F804C09E43D5
:100AA0005FEACC2C00D51E433E60DBF800605F4659
:100AB000D1F804C09E435FEA8C2C00D51E433E60F3
:100AC000DEF800607746D1F804C09E435FEA8C3CB4
:100AD00000D51E433E60084F083F3E68D1F804C071
:100AE0009E435FEACC3C00D51E433E60521C102A58
:100AF000FFF436AFBDE8F88F083C014044380240AF
:100B000000300140000002400004024000080240A2
:100B1000000C024000100240001402400018024085
:100B2000426921EA02030A4043EA024181617047B7
:100B30000AB1816170470904FBE700000148806841
:100B4000704700001000002070B5040025D094F814
:100B50003D00002520B984F83C50204600F0B8F84C
:100B6000242084F83D002068016821F00101016023
:100B70002068016841F4004101602068016821F4A7
:100B80000041016000F08AFA4D4A6168914201D843
:100B90004C4900E04C49884201D2012070BD4B49CC
:100BA0002368B0FBF1F15E6826F03F060E435E60FD
:100BB0006368934206D94FF4967359434FF47A739E
:100BC000B1FBF3F12368491C1E6A26F03F0631434E
:100BD00019626168914210D84900401EB0FBF1F2E1
:100BE000521CC2F30B02042A01D2042022E0B0FB03
:100BF000F1F0401CC0F30B001CE0A268F2B301EB63
:100C0000C10303EB0116431EB3FBF6F35B1C43F475
:100C100080431B0549D092B301EBC10202EB0111E5
:100C2000401EB0FBF1F0401CC0F30B0040F48040CC
:100C300040F400402168CA694CF6FF739A431043A0
:100C4000C861D4E9071001432068026822F0C0029D
:100C500011430160D4E9030101432068826848F22E
:100C6000FF339A4311438160D4E9050108432168A9
:100C7000CA6822F0FF021043C86001E00EE016E0EF
:100C80002068016841F0010101602564202084F89A
:100C90003D00256384F83E50002070BD01EB410605
:100CA000431EB3FBF6F35B1CB3E70120C2E701EB85
:100CB0004101401EB0FBF1F0401CC0F30B00B7E750
:100CC000A086010080841E0000093D0040420F0004
:100CD00010B586B0044614216846FFF7ECFB1349B3
:100CE0002068884220D112480021026842F00202A6
:100CF0000260006800F002000590C0200090122001
:100D0000CDE90101032003900420049069460948BD
:100D1000FFF718FE06481030016841F40011016029
:100D2000006800F40010059006B010BD00540040AB
:100D3000303802400004024070B5040011D0216830
:100D40004CF6CC400860216845F255500860D4E963
:100D5000000141602168A0688860FFF7EFFE05464A
:100D60000DE0012070BD00BFFFF7E8FE401B3128F9
:100D700005D92068C068800701D0032070BD2068B5
:100D8000C0688007F0D121684AF6AA2008600020D8
:100D900070BD00000248816802781144816070478C
:100DA000100000200B4810B5016841F4007101608B
:100DB000016841F480610160016841F48071016063
:100DC000032000F09FF80F2000F006F800F050F824
:100DD000002010BD003C024030B50546204887B0D9
:100DE0000024016841F001010160006806A900F0DB
:100DF0000100009001A800F031F90498B0B100F0B2
:100E00004DF9400017494FF08042B0FBF1F1164810
:100E1000491E026040F2E732C0E90324C0E9011430
:100E2000846100F0A1FB040003D015E000F036F966
:100E3000E8E70D4800F0DAFB04000DD11C2000F0BB
:100E400033F8102D07D2002229461C2000F03AF872
:100E50000648056000E0012407B0204630BD0000D0
:100E60004038024040420F001404002014000020CB
:100E70000C4882B0016841F480410160006800F4D0
:100E8000804000900748001F016841F080510160D8
:100E90000068002200F0805000900F21901E02B0E8
:100EA00000F010B844380240002809DB00F01F02AF
:100EB000012191404009800000F1E020C0F80011BC
:100EC00070470000F0B40E4B1B680C46C3F30223BE
:100ED000C3F10705042D00D90425191D072901D2E6
:100EE000002300E0DB1E012606FA05F1491E214021
:100EF00099409E40761E16403143F0BC00F0ABBFD7
:100F00000CED00E0064900F0070208684FF6FF0309
:100F1000184040EA0220034A10430860704700006E
:100F20000CED00E00000FA052DE9F0470E46050043
:100F300065D0DFF81481D8F80000F7B200F00F0098
:100F4000B04207D288F80070D8F8000000F00F0017
:100F5000B04254D128683D4C810712D5400703D5D3
:100F6000206840F4E05020602878000703D520680E
:100F700040F4604020602068A96820F0F000084339
:100F800020602878C0072DD03049686808390128CA
:100F900012D0022813D0032811D00968890700292C
:100FA0002DDA216821F0030101432160FFF7C6FD1E
:100FB000814641F2883A0EE009688903EFE7096843
:100FC0008901ECE7FFF7BAFDA0EB0901514502D911
:100FD0000320BDE8F0872068696800F00C00B0EBE2
:100FE000810FEFD1D8F80010404601F00F01B14257
:100FF00007D90770006800F00F00B04201D001204F
:10100000E7E72878400705D52068E96820F4E05034
:10101000084320602878000706D52068296920F455
:10102000604040EAC100206000F058F82168084A9A
:10103000C1F30311515CC8400649086006480068C6
:10104000FFF7CAFE0020C4E7003C02400838024017
:10105000742A00081C000020140000200F220260E7
:101060000C4A136803F003034360136803F0F003B2
:101070008360136803F4E053C36012684FF4E053D5
:1010800003EAD20202610448006800F00F00086021
:101090007047000008380240003C024004480549FF
:1010A00000680968044AC1F38221515CC840704756
:1010B0001C00002008380240842A00080448054922
:1010C00000680968044AC1F34231515CC840704766
:1010D0001C00002008380240842A0008224810B56D
:1010E000006810F00C02214815D04110042A11D0DC
:1010F0001D4C241F082A0FD00C2A0CD1226823680B
:1011000002F03F025B0221D52068C0F38810A0FBEB
:10111000010120E0084610BD2268236802F03F026A
:101120005B0205D52068C0F38810A0FB010104E034
:101130002168C1F38811A1FB00010023FFF712F918
:101140002168C1F30141491C49000AE02168C1F34B
:101150008811A1FB00010023FFF704F92168C1F306
:101160000271B0FBF1F010BD083802400024F40019
:101170002DE9F84F040071D0DFF844B32078ABF1CB
:101180000407C007A7F1040544D0DBF80010584657
:10119000C1F3810101290FD00168C1F38101022946
:1011A00002D13968490207D40068C0F381000328DE
:1011B00009D13868400206D5286880032AD56068BE
:1011C0000028D8D026E06068B0F5803F12D0B0F596
:1011D000A02F286812D020F480302860286820F4DE
:1011E000802028606068A8B1FFF7A8FCFFF7A6FC84
:1011F00006460CE0286840F48030F2E740F4802096
:101200002860F7E7FFF79AFC801B64287DD82868E0
:101210008003F7D42078DFF8AC9280074FF0000A03
:1012200044D5DBF80010584611F00C0F0FD00168C0
:10123000C1F38101022902D13968490207D500684A
:10124000C0F3810003280AD13868400207D4286817
:10125000800715D5E068012800D111E02CE1E06895
:10126000B0B10120C9F80000FFF768FC064604E0B1
:10127000FFF764FC801B0228C8D828688007F7D5D0
:101280002868216920F0F80040EAC10028600DE0DC
:10129000C9F800A0FFF752FC064604E0FFF74EFC39
:1012A000801B022831D828688007F7D420780007EF
:1012B00019D56069B8B1844E01203060FFF73EFC5B
:1012C000C6F800A0FFF73AFCDFF8F481064608F103
:1012D0006C0804E0FFF732FC801B022815D8D8F810
:1012E00000008007F6D4207840076BD574484FF093
:1012F000000838300068C0000DD4714838300168EB
:1013000041F080510160006800E091E000F0805001
:101310004FF0010800906D4E3068C00511D4306860
:1013200040F480703060FFF709FC009006E000BFD9
:10133000FFF704FC0099401A022879D83068C005EC
:10134000F6D55F4EA068683601280FD005283068B2
:1013500010D020F001003060306820F004003060D0
:10136000A068B8B1FFF7EAFB00900FE0306840F0EA
:101370000100F4E740F004003060F7E7FFF7DEFB20
:101380000099411A41F28830814262D83068800762
:10139000F4D50EE0FFF7D2FB009007E0FFF7CEFB9D
:1013A0000099411A41F28830814252D83068800752
:1013B000F4D4B8F1000F05D041483830016821F06D
:1013C00080510160A069A0B3DBF80010C1F3810176
:1013D000022945D00228C9F860A003D0FFF7AEFB70
:1013E000044639E0FFF7AAFB064604E0FFF7A6FB38
:1013F000801B02282DD828688001F7D4F4E9070162
:101400000843E168324A490802EB0141A26841EA17
:1014100082110843217C40EA0160217D40EA01708D
:1014200038600120C9F86000FFF788FB044606E039
:101430000FE043E0FFF782FB001B022809D8286871
:101440008001F7D53AE000BFFFF778FB001B0228C8
:1014500002D90320BDE8F88F28688001F4D42DE07C
:101460000128F7D03868E26900F48001914223D165
:10147000226A00F03F0191421ED147F6C071626AB4
:101480000140B1EB821F17D1A26A4FF0FF3300F485
:10149000403103EB5202B1EB024F0DD194F82C20F6
:1014A00000F07061B1EB026F06D194F8301000F0DB
:1014B000E040B0EB017F01D00120CBE70020C9E77D
:1014C0000838024000004742800E4742007000404A
:1014D0000000FFFF7047704770B590F83C20012A6C
:1014E00032D0012480F83C40022280F83D2003687D
:1014F0005A689D6822F070060A6832435A60134B9E
:1015000002689A4214D0B2F1804F11D0104B9A4227
:101510000ED0104B9A420BD00F4B9A4208D00F4B73
:101520009A4205D00E4B9A4202D00E4B9A4204D1F9
:10153000496825F080031943916080F83D400021FF
:1015400080F83C10084670BD022070BD00000140CC
:101550000004004000080040000C0040000401406E
:10156000004001400018004010B5040003D094F87A
:101570003D0010B107E0012010BD002084F83C00C0
:10158000204600F01FF8022084F83D00211D20684D
:1015900000F038FB012084F8460084F83E0084F80F
:1015A0003F0084F8400084F8410084F8420084F849
:1015B000430084F8440084F8450084F83D0000208E
:1015C00010BD000008B500680649884208D10648E9
:1015D000016841F001010160006800F00100009025
:1015E00008BD0000000001404438024090F83D1062
:1015F000012901D001207047022180F83D100168C7
:10160000CA6842F00102CA6000681149884214D0D9
:10161000B0F1804F11D00F4988420ED00E49884258
:101620000BD00E49884208D00D49884205D00D499B
:10163000884202D00C49884204D1816801F0070138
:10164000062903D0016841F00101016000207047C4
:10165000000001400004004000080040000C004071
:1016600000040140004001400018004070B50446ED
:1016700090F83C000025012817D0012684F83C6032
:10168000022084F83D002068826822F0770222F46C
:101690007F4282600868502838D00DDC20284FD067
:1016A00005DC90B3102811D14AE0022070BD30282B
:1016B00046D040280AD13BE060282FD070280DD0BA
:1016C000B0F5805F03D0B0F5005F12D0012584F83B
:1016D0003D60002084F83C00284670BDCB68D1E90D
:1016E0000121206800F0FAFA2068816841F0770152
:1016F00009E0CB68D1E90121206800F0EFFA206809
:10170000816841F480418160E1E719E0CA68496875
:10171000206800F0F5FA5021206806E0CA684968A0
:10172000206800F0FEFA6021206800F0E1FACEE7C0
:10173000CA684968206800F0E3FA40212068F4E7AD
:10174000226801461046F0E770472DE9F041044653
:101750000068C66805694FF00007A90713D5B107EF
:1017600011D5F91E0161012020772068806980076A
:10177000204602D0FFF7E8FF04E000F07EF82046A4
:1017800000F07CF82777680716D5700714D5216814
:101790006FF004000861022020772068806910F44F
:1017A000407F204602D0FFF7CFFF04E000F065F84D
:1017B000204600F063F82777280715D5300713D5A2
:1017C00021686FF008000861042020772068C06954
:1017D0008007204602D0FFF7B7FF04E000F04DF885
:1017E000204600F04BF82777E80616D5F00614D50A
:1017F00021686FF010000861082020772068C06918
:1018000010F4407F204602D0FFF79EFF04E000F076
:1018100034F8204600F032F82777E80708D0F007C0
:1018200006D021686FF001000861204600F027F81B
:10183000280608D5300606D521686FF080000861BB
:101840002046FFF747FE680608D5700606D52168D2
:101850006FF040000861204600F018F8A8060AD58D
:10186000B00608D521686FF0200008612046BDE869
:10187000F041FFF730BEBDE8F08170477047006867
:10188000B0F1804F01D1FFF785BA7047704770B54E
:10189000040004D094F84100002510B106E00120B6
:1018A00070BD84F84050204600F024F8242084F8CD
:1018B00041002068C16821F40051C160204600F059
:1018C00043FA2068016921F490410161206841696F
:1018D00021F02A0141612068C16841F40051C160D2
:1018E0006564202084F8410084F84200656300208C
:1018F00070BD000010B586B0044614216846FEF79E
:10190000DAFD14492068884221D113480021026879
:1019100042F010020260006800F0100005900E48CE
:101920001438026842F001020260006800F0010011
:1019300005904FF4C06000900220CDE90101032022
:1019400003900720049069460448FEF7FBFF06B0A9
:1019500010BD000000100140443802400000024069
:10196000FEE700007FB50024134800940194029420
:1019700010490394C0E9001484600461047680F87F
:1019800020400E49C0E90A140125C561C46080F8F1
:1019900030404561FEF74CFF40B90095CDE9015458
:1019A00069460548FEF792FE002801D0FEF77EFE4C
:1019B0007FBD000000200140880000200100000FD2
:1019C000F0B587B014216846FEF775FD284800245D
:1019D000016841F004010160016801F00401059112
:1019E000016841F080010160016801F0800105910A
:1019F000016841F001010160016801F001010591F8
:101A0000016841F00201016000681A4E00F0020016
:101A10004FF400550590002229463046FFF788F81C
:101A2000154F002220213846FFF782F80095012546
:101A3000CDE90154694630460394FEF783FF0C203C
:101A400000900220CDE901040320039007200490B8
:101A500069463846FEF776FF20200090CDE9015414
:101A6000694638460394FEF76DFF07B0F0BD0000ED
:101A70003038024000080240000002400C4810B517
:101A80000A4901600B49416000214FF480428160A6
:101A9000C0E9031241618161C1610162FFF754F83D
:101AA000002801D0FEF702FE10BD000000540040E7
:101AB000D0000020A086010010B586B00024154893
:101AC00000940194029403940494114905940160D4
:101AD0004721C0E901144FF6FF71C0E903144461C6
:101AE0008461FFF741FD78B94FF48050009069465A
:101AF0000848FFF7BBFD38B9049404A905480594CC
:101B0000FFF7EAFC002801D0FEF7D0FD06B010BDBB
:101B10000000014030010020FEE7FEE7012000F058
:101B200017FAFBE7012000F013FAFBE7012000F0B1
:101B30000FFAFBE7012000F00BFAFBE710B550208D
:101B400080F31188BFF34F8FBFF36F8F00F08CFECF
:101B500018B104494FF080500860002080F31188CC
:101B600010BD000004ED00E030B593B034216846AC
:101B7000FEF7A1FC14210DA8FEF79DFC18480024D7
:101B8000016841F080510160006800F080501290BF
:101B90001448016821F4404141F48041016000682B
:101BA000012500F440401290092000904FF480304D
:101BB0000190CDE905546846FFF7DAFA60B90F20C5
:101BC000CDE90D052803CDE90F4000210DA81194A2
:101BD000FFF7AAF9002801D0FEF768FD13B030BD69
:101BE00040380240007000400248016841F4700132
:101BF0000160704788ED00E00148FFF7A6BD0000D6
:101C000014040020F0B50268294C2A4D2A4E2B4FAF
:101C10002B4B4FF0804CA04209D0604507D0A84222
:101C200005D0B04203D0B84201D0984204D122F08E
:101C3000700E4A6842EA0E02A0421BD0604519D0DD
:101C4000A84217D0B04215D0B84213D0984211D054
:101C50001C4DA8420ED01C4DA8420BD01B4DA842D3
:101C600008D01B4DA84205D01A4DA84202D01A4DEB
:101C7000A84203D122F44075CA682A434D6922F074
:101C800080022A4302608A68C2620A688262A042B5
:101C900001D0984201D109690163012141610169C3
:101CA000C90703D0016921F001010161F0BD000005
:101CB000000001400004004000080040000C00400B
:101CC0000004014000400140004401400048014040
:101CD00000180040001C00400020004010B584683F
:101CE00042EA032224F47F440A432243826010BD67
:101CF000826822F070020A4342F007018160704757
:101D000010B5036A046A24F001040462846924F0B3
:101D1000F00444EA021423F00A020A4384610262D6
:101D200010BD10B5036A046A24F0100404628469CB
:101D300023F0A00324F4704444EA023243EA011180
:101D40008261016210BD000070B50446006801693F
:101D5000E26821F44051114301612169A068E26900
:101D600008436169114308432168CA6849F20C635A
:101D70009A430243CA6020684169A26921F4407114
:101D80001143416131492068884202D0304988427C
:101D900002D1FFF793F901E0FFF780F9E269002330
:101DA000192164253226B2F5004F626828D0A0FBC5
:101DB0000101930F9200FEF7D5FA0146B0FBF5F052
:101DC0006FF01802504301EB800006EB0010B0FBEF
:101DD000F5F000F0F002B1FBF5F002EB0012B1FB00
:101DE000F5F06FF01803584301EB800006EB00108C
:101DF000B0FBF5F000F00F0021681044886070BD62
:101E0000A0FB010192185B41FEF7ACFA0146B0FB62
:101E1000F5F00201B1FBF5F06FF01803584301EB48
:101E2000800006EBC000B0FBF5F000F0F80002EB1C
:101E30004002B1FBF5F0584301EB800006EBC00017
:101E4000B0FBF5F000F00700D6E7000000100140FD
:101E500000140140FEE70907090E002804DB00F129
:101E6000E02080F80014704700F00F0000F1E0203F
:101E700080F8141D704700009CB0FEF793FFFFF739
:101E800073FEFFF79DFDFFF76DFDFFF7F7FD294896
:101E900027490C2201604FF41651416000218160F6
:101EA000C160C0E904128161C161FFF7F0FC68B94B
:101EB000FFF702FE1F4820495438016004214160A9
:101EC00040F6FF718160FEF737FF08B1FEF7EEFBC9
:101ED0001C221A496846FEF7BCFA0021684600F049
:101EE00043F8174C15491C2220601C3107A8FEF747
:101EF000B0FA002107A800F037F8104960601C22F2
:101F000038310EA8FEF7A5FA00210EA800F02CF833
:101F10000A49A0601C22543115A8FEF79AFA002144
:101F200015A800F021F8E06000F019F8FEE70000C5
:101F3000001001407801002000300040042A000811
:101F40000000002001460020842900D0C81C7047F2
:101F500010B500B9012000F023FB002010BD10B522
:101F600000F044FB002010BD7FB50D4604464169DA
:101F7000B0F9080081B1A16971B1FFF7E3FFD4E9BD
:101F800005128DE80700D4E900102B46226900F005
:101F900040FC039004B070BDFFF7D4FF03A9CDE966
:101FA0000001208A2B4682B2D4E9001000F004FC24
:101FB000012801D00020EDE70398EBE72DE9F0417F
:101FC000184C0F460546E6682068001D00F020FA10
:101FD00038B9206890F82C1001208840216981438D
:101FE0002161681C07D137B12168BDE8F0410E4876
:101FF000091D00F051BA20683544B542456021689A
:1020000005D2A06BBDE8F041091D00F02DBA606B50
:10201000091D00F029FAA06A854200D2A562BDE838
:10202000F081000020000020380500202DE9F0415B
:10203000054600F03DFA2E4CA068401CA0602068C8
:102040002C4F10B1606940B32DE02560A0680128D5
:1020500029D1002606EB860007EB800000F0F6F998
:10206000761C072EF6D323488C3000F0EFF9214878
:10207000A03000F0EBF91F48B43000F0E7F91D483C
:10208000C83000F0E3F91B48DC3000F0DFF91948F4
:102090008C3060631430A06305E02068E96AC06A90
:1020A000884200D82560606A401C6062E96A0120AD
:1020B000226988401043206101EB810007EB80001A
:1020C000291D00F0E9F900F013FA606900280CD02E
:1020D0002068E96AC06A884207D207494FF08050F9
:1020E0000860BFF34F8FBFF36F8FBDE8F081000032
:1020F000200000205C04002004ED00E010B5044640
:1021000090F8510058B101280CD002280FD050206F
:1021100080F31188BFF34F8FBFF36F8FFEE7206B03
:1021200000F0FAF92046BDE8104000F0F5B910BD06
:1021300010484FF47051420706D0C01D0D4920F0E1
:102140000700411AC1F570510B4A00230144C2E94E
:1021500000030839183A21F0070111604B600B6049
:102160000B1AC0E9001393604FF0004053605061B8
:10217000704700004C05002074000020144E154CE0
:10218000A6F1C8074FF08058DFF84C9012E000BF6E
:1021900000F08EF9F068C568281D00F039F9A068D4
:1021A000401EA0606068401E606000F0A1F92846F3
:1021B000FFF7A4FF60680028EAD138680128F9D940
:1021C000C9F80080BFF34F8FBFF36F8FF2E70000B5
:1021D000240500202000002004ED00E02DE9F04758
:1021E0009A46DDE9098481466FF00303206B03EB17
:1021F00082021044089E20F00707780707D050207D
:1022000080F31188BFF34F8FBFF36F8FFEE7002578
:1022100061B1002023180A5C83F834200A5C12B1F3
:10222000401C1028F6D384F8435001E084F8345061
:10223000072E00D30626E662C4E91165201D00F0D2
:1022400010F904F1180000F00CF92461C6F1070040
:102250006462A061E56484F85050524649463846AD
:1022600000F0C0F82060B8F1000F01D0C8F80040BD
:10227000BDE8F08730B5114900E011460A68824296
:10228000FBD34B685C18844203D140681844486013
:10229000084643681C18944209D1084C183C24682D
:1022A000A24209D052681A4442600A681268026069
:1022B000814200D0086030BD0460F9E7740000205E
:1022C0000648416B096829B1416BC968C96849680A
:1022D000816270474FF0FF31FAE7000020000020D4
:1022E00008484068401C4FF0500080F3118804D02B
:1022F000BFF34F8FBFF36F8FFEE7BFF34F8FBFF377
:102300006F8FFEE77C0000202DE9F0410546002795
:1023100000F0A2F9324E306808B9FFF709FF706982
:1023200005424ED1C5B3083568070ED005F0070049
:10233000C0F108000544680707D0502080F31188D9
:10234000BFF34F8FBFF36F8FFEE72DB370688542E9
:1023500037D82348183001460C6801E020460C4667
:102360006168A94202D221680029F7D131688C4204
:1023700027D007682168016060680837411B102971
:102380000FD96019420708D0502080F31188BFF39D
:102390004F8FBFF36F8FFEE713E041606560FFF77B
:1023A00069FF61687068401A7060B268904200D23C
:1023B000B060706901430020C4E90001F068401C6E
:1023C000F06000F0B7FA780707D0502080F311884A
:1023D000BFF34F8FBFF36F8FFEE73846BDE8F08144
:1023E0005C00002010B5031F4FF080741C601B1FA1
:1023F00021F001011960191F044B0B6014390A60A8
:10240000091F6FF0020244380A6010BDE122000883
:10241000D0E9013201699A60D0E901235A604A6823
:10242000824201D182684A60002202610868401E2F
:102430000860086870470000034B036003F1540014
:102440000860802010607047C001002000F1080182
:102450004FF0FF32C0E90112C1600161002101604B
:10246000704700210161704730B50B685A1C02D0DB
:1024700000F1080202E0026904E02246546825687F
:102480009D42FAD953684B6099608A605160086137
:102490000168491C016030BD42684A6093688B60E6
:1024A00093685960916008610168491C0160704738
:1024B000502080F31188BFF34F8FBFF36F8F0A490D
:1024C0004868401C486001280CD10848006810F09A
:1024D000FF0F07D0502080F31188BFF34F8FBFF359
:1024E0006F8FFEE7704700007C00002004ED00E0E5
:1024F0000849486828B1401E486001D180F311881E
:102500007047502080F31188BFF34F8FBFF36F8F58
:10251000FEE700007C00002070B500282AD0164D90
:10252000A0F1080460686969084207D1502080F36F
:102530001188BFF34F8FBFF36F8FFEE722683AB168
:10254000502080F31188BFF34F8FBFF36F8FFEE7EA
:102550008843606000F080F86068696808446860DB
:102560002046FFF787FE2869401C2861BDE87040BF
:1025700000F0E0B970BD00005C0000204FF0E020EA
:1025800000210161816105494FF47A720968B1FB4C
:10259000F2F1491E41610721016170471C000020D2
:1025A00010B5020014D00F48006B38B1502080F3F2
:1025B0001188BFF34F8FBFF36F8FFEE700F04CF829
:1025C00000211046FFF7FAFC00F0B4F9002807D10B
:1025D00005494FF080500860BFF34F8FBFF36F8FF6
:1025E00010BD00002000002004ED00E010B586B012
:1025F0000024039405AA04A903A80494FFF71CFF70
:10260000DDE903010094CDE9011000230EA110487B
:10261000059A00F0FEF80F490028C86211D050203A
:1026200080F31188BFF34F8FBFF36F8F4FF0FF30F0
:10263000886201204861CC6006B0BDE8104000F01F
:1026400041B806B010BD000049444C4500000000F0
:102650007D210008200000200248016B491C016315
:1026600070470000200000201448016B11B10121C7
:10267000C16170470021C1610169B1FA81F1C1F105
:102680001F0101EB81020E4951F822306BB101EBC1
:10269000820101F108034A6852684A609A4201D1F6
:1026A00052684A60D16801607047502080F31188F9
:1026B000BFF34F8FBFF36F8FFEE7000020000020B5
:1026C0005C0400201CB537480168374A914207D1A5
:1026D000502080F31188BFF34F8FBFF36F8FFEE759
:1026E00000683149491E884207D1502080F3118883
:1026F000BFF34F8FBFF36F8FFEE72C49087801902F
:10270000FF20087008788DF800009DF800009DF803
:10271000002000F0F000904207D0502080F3118894
:10272000BFF34F8FBFF36F8FFEE79DF80000204C83
:1027300000F0500020700720A06005E09DF8002008
:1027400052008DF80020401E9DF800201206F5D49E
:10275000A060032807D0502080F31188BFF34F8F6B
:10276000BFF36F8FFEE74FF44070A06001980870D0
:102770000C482030016841F470010160016841F0AB
:1027800070410160FFF7FAFE00206060FDF78EFDEA
:102790000848016841F040410160FDF773FD0020E9
:1027A0001CBD000000ED00E071C20F4100E400E03C
:1027B0007C00002034EF00E02DE9FF5F8346DDE977
:1027C0000E87994616468A469000FFF79DFD050044
:1027D0001CD05420FFF798FD040014D0002025637E
:1027E00084F85100CDE90240CDE900874B463246DE
:1027F00051465846FFF7F2FC2046FFF717FC012030
:1028000004B0BDE8F09F2846FFF786FE4FF0FF308A
:10281000F6E7F0B585B0DDE90B640A9DA6B1DCB141
:10282000542700972663022684F85160002604AFDF
:10283000CDE90246CDE90057FFF7D0FC2046FFF76F
:10284000F5FB049805B0F0BD502080F31188BFF36C
:102850004F8FBFF36F8FFEE7502080F31188BFF3D7
:102860004F8FBFF36F8FFEE72DE9F0412F4C00260D
:10287000206B28B1A069401CA0613046BDE8F08102
:10288000E5686D1CE56013D1606B006838B15020BD
:1028900080F31188BFF34F8FBFF36F8FFEE7606B3C
:1028A000A16B6163A063206A401C2062FFF708FDF2
:1028B000A06ADFF87C80854209D3606B0068A0B114
:1028C000606BC068C7687868854211D2A0622068D2
:1028D000C06A00EB800158F82100012800D90126C8
:1028E000E0690028C9D00126C7E74FF0FF30EDE7C7
:1028F000381DFFF78DFDB86A18B107F11800FFF712
:1029000087FDF96A0120226988401043206101EBAC
:10291000810108EB8100391DFFF7BEFDF86A2168CF
:10292000C96A8842C9D30126C7E7000020000020F9
:102930005C0400202DE9F0472C4D00242746286B2D
:1029400038B1FFF7B5FD286B401E2863286B40B1F6
:1029500046E0502080F31188BFF34F8FBFF36F8F95
:10296000FEE7A968224E0120D1B3A6F1B409804642
:102970003068E8B1F068C46804F11800FFF748FD5A
:10298000201DFFF745FDE06A2A6908FA00F11143AE
:10299000296100EB800109EB8100211DFFF77CFD1F
:1029A000E06A2968C96A8842E2D3C5F81C80DFE77B
:1029B0000CB1FFF785FCAC6944B14646FFF754FF04
:1029C00000B1EE61641EF9D10020A861E86938B158
:1029D0000849012738070860BFF34F8FBFF36F8F97
:1029E000FFF786FD3846BDE8F08700002000002094
:1029F0001005002004ED00E04FF04070E1EE100AF9
:102A000070470000A42A00081D1B000800000000F9
:102A10000000000080000000000000000000000036
:102A20008C2A0008251B0008FEFF000000000000A3
:102A3000800000000000000000000000982A00084C
:102A40002D1B0008FEFF00000000000080000000B9
:102A50000000000000000000B02A0008351B00083C
:102A600000000000000000008000000000000000E6
:102A7000000000000000000000000000010203044C
:102A800006070809000000000102030452656164A2
:102A9000504D5461736B0000526561644D51546137
:102AA000736B000064656661756C745461736B00D0
:102AB000446973706C61795461736B00DC2A00089F
:102AC000000000208800000000020008642B0008BD
:102AD00088000020284700001C02000800000000B9
:102AE00000000000000000000000000001000000E5
:102AF00010000000000000000024F40000000000AE
:102B000000000000000000000000000000000000C5
:102B100000000000000000000000000000000000B5
:102B200000000000000000000000000000000000A5
:102B30000000000000000000000000000000000095
:102B40000000000000000000000000000000000085
:102B5000000000000000000000000000AAAAAAAACD
:042B60000000000071
:04000005080001C529
:00000001FF
